:020000040000FA
:100000000C9463000C948B000C948B000C94E10511
:100010000C94E1050C94E1050C948B000C948B007E
:100020000C948B000C948B000C948B000C948B0024
:100030000C948B000C948B000C948B000C948B0014
:100040000C9497050C948B000C9465050C943F055B
:100050000C948B000C948B000C948B000C948B00F4
:100060000C948B000C948B000000000024002700EF
:100070002A0000000008000201000003040700003D
:1000800000000000000000000000230026002900FE
:1000900000000000250028002B00040404040404D0
:1000A0000404020202020202030303030303010227
:1000B00004081020408001020408102001020408F6
:1000C00010205906660911241FBECFEFD8E0DEBF0D
:1000D000CDBF11E0A0E0B1E0EEEBF3E102C005908E
:1000E0000D92A239B107D9F722E0A2E9B1E001C02F
:1000F0001D92A73BB207E1F710E0C2E6D0E004C0D2
:100100002197FE010E94CC09C136D107C9F70E9490
:100110002D070C94D2090C94000080E480937C009D
:1001200080917A00806480937A0080917A0086FDC5
:10013000FCCF80917800909179000895AF92BF92A2
:10014000CF92DF92EF92FF920F931F93CF93DF93A3
:100150006C017B018B01040F151FEB015E01AE18D2
:10016000BF08C017D10759F06991D601ED91FC91F4
:100170000190F081E02DC6010995892B79F7C50121
:10018000DF91CF911F910F91FF90EF90DF90CF9073
:10019000BF90AF900895FC01538D448D252F30E022
:1001A000842F90E0821B930B541710F0CF96089584
:1001B00001970895FC01918D828D981761F0A28DB1
:1001C000AE0FBF2FB11D5D968C91928D9F5F9F7377
:1001D000928F90E008958FEF9FEF0895FC01918D2D
:1001E000828D981731F0828DE80FF11D858D90E09A
:1001F00008958FEF9FEF0895FC01918D228D892F37
:1002000090E0805C9F4F821B91098F73992708951E
:1002100083EE91E00E94FC0021E0892B09F420E0AC
:10022000822F089580E090E0892B29F00E94080138
:1002300081110C9400000895FC01A48DA80FB92F22
:10024000B11DA35ABF4F2C91848D90E001968F73FE
:100250009927848FA689B7892C93A089B1898C911D
:10026000837080648C93938D848D981306C002886C
:10027000F389E02D80818F7D80830895EF92FF9236
:100280000F931F93CF93DF93EC0181E0888F9B8DB9
:100290008C8D98131AC0E889F989808185FF15C073
:1002A0009FB7F894EE89FF896083E889F989808196
:1002B0008370806480839FBF81E090E0DF91CF9165
:1002C0001F910F91FF90EF900895F62E0B8D10E087
:1002D0000F5F1F4F0F731127E02E8C8D8E110CC0F6
:1002E0000FB607FCFACFE889F989808185FFF5CF41
:1002F000CE010E941C01F1CFEB8DEC0FFD2FF11D03
:10030000E35AFF4FF0829FB7F8940B8FEA89FB897D
:1003100080818062CFCFCF93DF93EC01888D8823DB
:10032000B9F0AA89BB89E889F9898C9185FD03C058
:10033000808186FD0DC00FB607FCF7CF8C9185FF3D
:10034000F2CF808185FFEDCFCE010E941C01E9CF65
:10035000DF91CF910895833081F028F4813099F0B6
:100360008230A9F008958730A9F08830C9F0843030
:10037000B1F4809180008F7D03C0809180008F77E1
:1003800080938000089584B58F7784BD089584B5E7
:100390008F7DFBCF8091B0008F778093B000089560
:1003A0008091B0008F7DF9CF1F93CF93DF93282FDB
:1003B00030E0F901EE58FF4F8491F901E255FF4F0B
:1003C000D491F901E656FF4FC491CC23A9F0162F22
:1003D00081110E94AB01EC2FF0E0EE0FFF1FE05700
:1003E000FF4FA591B4918FB7F894EC91111108C00B
:1003F000D095DE23DC938FBFDF91CF911F910895BD
:10040000DE2BF8CFCF93DF9390E0FC01E255FF4F56
:10041000249186569F4FFC0184918823C9F090E077
:10042000880F991FFC01E859FF4FA591B491FC0179
:10043000E057FF4FC591D49161110DC09FB7F8945B
:100440008C91209582238C938881282328839FBFB9
:10045000DF91CF910895623051F49FB7F8943C91A9
:10046000822F809583238C93E8812E2BEFCF8FB73B
:10047000F894EC912E2B2C938FBFEACF3FB7F894D2
:100480008091D7019091D801A091D901B091DA0162
:1004900026B5A89B05C02F3F19F00196A11DB11DDF
:1004A0003FBFBA2FA92F982F8827BC01CD01620F1B
:1004B000711D811D911D42E0660F771F881F991FD6
:1004C0004A95D1F708958F929F92AF92BF92CF92A3
:1004D000DF92EF92FF924B015C010E943E026B01A2
:1004E0007C010E943E026C197D098E099F09683EBD
:1004F000734081059105A8F321E0821A9108A108B3
:10050000B10888EEC80E83E0D81EE11CF11C8114EE
:100510009104A104B10429F7FF90EF90DF90CF90F0
:10052000BF90AF909F908F9008952091DD01309102
:10053000DE012817390771F49091DB018091DC010D
:10054000981741F0E091DB01F0E0EE56FE4F80811C
:1005500090E008958FEF9FEF08950895EF92FF9236
:100560000F931F93CF93DF93DC015C96ED90FC908B
:100570005D97E114F10479F481E090E013969C9387
:100580008E93129790E080E0DF91CF911F910F91B1
:10059000FF90EF9008955196ED91FC9152975096EF
:1005A0008C915097982F90950FB75E962C915E97EF
:1005B000122F127021FD6095F8942081112319F1FA
:1005C000282B2083E7012197F1F728E0462F50E000
:1005D000308160FF1AC0382B3083E7012197F1F793
:1005E000BA0175956795215089F7112381F08081B3
:1005F000892380830FBF5C968D919C910197F1F7C1
:1006000081E090E0C1CF2923DCCF3923E5CF908171
:10061000892BEFCF2091DD013091DE0128173907BA
:1006200071F48091DC012091DB0190E0805C9F4FB0
:10063000821B910960E470E00E948209089590E0B5
:1006400080E008952091DD013091DE0128173907FF
:10065000B9F49091DB018091DC01981789F0E09169
:10066000DB01F0E0EE56FE4F80812091DB0130E0AF
:100670002F5F3F4F2F7333272093DB0190E00895C6
:100680008FEF9FEF0895089590E080E00895CF9355
:10069000DF93EC0160E08E810E94D40161E08E81E5
:1006A0000E94D40160E08E810E94D4018BE891E029
:1006B0000197F1F7DF91CF910895CF92DF92EF92FA
:1006C000FF920F931F93CF93DF936C017C0187E020
:1006D000E80EF11CD0E0C0E0062F10E0B8010C2EAF
:1006E00002C0759567950A94E2F76170F7018191F0
:1006F0007F010E94D4012196C430D10579F7C6014B
:10070000DF91CF911F910F91FF90EF90DF90CF90ED
:100710000C944703CF92DF92EF92FF920F931F93B7
:10072000CF93DF93EC01F62E642F8C810E94D401CD
:100730008D818F3F19F060E00E94D4010F2D10E0F1
:100740008F8584FF25C06E0187E0C80ED11CF12C77
:10075000E12CB8010E2C02C0759567950A94E2F75A
:100760006170F60181916F010E94D401FFEFEF1AD1
:10077000FF0A88E0E816F10461F7CE01DF91CF911E
:100780001F910F91FF90EF90DF90CF900C94470353
:10079000B80184E0759567958A95E1F7CE010E94CE
:1007A0005D036F2DCE01DF91CF911F910F91FF90CF
:1007B000EF90DF90CF900C945D0340E0682F80E8CD
:1007C00092E00C948A03CF93DF93823029F49091C6
:1007D0008F02986090938F028093930210929402FC
:1007E00080E48093950280E18093960280E5809377
:1007F000970261E0809184020E940202809185024A
:100800008F3F19F061E00E94020261E08091860250
:100810000E940202C0E8D2E09E012058324080913E
:100820008F0284FD0BC084E090E0219628173907E1
:1008300044F461E08E810E940202EECF88E090E0F5
:10084000F4CF8BE39DE00197F1F760E080918402A3
:100850000E94D40160E0809186020E94D4018091C0
:1008600085028F3F19F060E00E94D40180918F02D1
:1008700084FD39C063E080E892E00E945D03CBE430
:10088000D6E4CE010197F1F763E080E892E00E94A0
:100890005D032197F1F763E080E892E00E945D0339
:1008A00083E592E00197F1F762E080E892E00E9430
:1008B0005D0380918F0280620E94DD0384E080935B
:1008C00090028CE00E94DD0381E00E94DD038BE357
:1008D0009FE10197F1F782E08093910286E0DF913A
:1008E000CF910C94DD0380620E94DD038BE496E4DB
:1008F0000197F1F780918F0280620E94DD0383E50A
:1009000092E00197F1F780918F0280620E94DD03EF
:10091000D0CF90919302691710F06FEF690FE62F17
:10092000F0E0E058FD4F9489890F80680C94DD0356
:1009300041E00E948A0381E090E00895FB0101906C
:100940000020E9F73197AF01461B570BDC01ED9111
:10095000FC910280F381E02D09948F929F92AF92D7
:10096000BF92EF92FF920F931F93CF93DF93CDB778
:10097000DEB7A1970FB6F894DEBF0FBECDBF7C01E6
:10098000FA01CB0119A2223008F42AE08E010F5D92
:100990001F4F822E912CB12CA12CBF01A5019401D7
:1009A0000E949609F901CA016A300CF5605DD80110
:1009B0006E938D01232B242B252B79F790E080E07B
:1009C000109721F0BD01C7010E949E04A1960FB6A9
:1009D000F894DEBF0FBECDBFDF91CF911F910F9175
:1009E000FF90EF90BF90AF909F908F900895695CBB
:1009F000DECFCF92DF92EF92FF920F931F93CF93B0
:100A0000DF93EC016A017B01E881F9810190F081BB
:100A1000E02D6DE209958C0144275527BA014C1948
:100A20005D096E097F092AE0CE010E94AD04800FA6
:100A3000911FDF91CF911F910F91FF90EF90DF9069
:100A4000CF900895AB01770F660B770B77FD0C9471
:100A5000F9042AE00C94AD04CF93DF93BC0183EE3C
:100A600091E00E949E04EC0160E371E083EE91E06E
:100A70000E949E048C0F9D1FDF91CF9108951F92BD
:100A80000F920FB60F9211242F933F934F935F93C2
:100A90006F937F938F939F93AF93BF93EF93FF9346
:100AA00083EE91E00E941C01FF91EF91BF91AF9105
:100AB0009F918F917F916F915F914F913F912F9176
:100AC0000F900FBE0F901F9018951F920F920FB6A8
:100AD0000F9211242F938F939F93EF93FF93E091A5
:100AE000F301F091F4018081E091F901F091FA01B4
:100AF00082FD1BC090818091FC018F5F8F732091DC
:100B0000FD01821741F0E091FC01F0E0ED51FE4F54
:100B1000958F8093FC01FF91EF919F918F912F9181
:100B20000F900FBE0F901F9018958081F4CF1F92E9
:100B30000F920FB60F9211242F933F938F939F9391
:100B4000AF93BF938091D3019091D401A091D5012F
:100B5000B091D6013091D20123E0230F2D3758F503
:100B60000196A11DB11D2093D2018093D3019093D2
:100B7000D401A093D501B093D6018091D701909173
:100B8000D801A091D901B091DA010196A11DB11D42
:100B90008093D7019093D801A093D901B093DA0143
:100BA000BF91AF919F918F913F912F910F900FBE69
:100BB0000F901F90189526E8230F0296A11DB11DD6
:100BC000D2CF1F920F920FB60F9211242F933F9303
:100BD0004F935F936F937F938F939F93AF93BF9345
:100BE000EF93FF93E091DD01F091DE01309749F042
:100BF000A685B7858585968D91FF14C09C91892324
:100C0000A1F4FF91EF91BF91AF919F918F917F914F
:100C10006F915F914F913F912F910F900FBE0F9069
:100C20001F9018959C91892361F7A389B4899C91A1
:100C30008589809589238C93868997890197F1F717
:100C4000608D718DA685B785558538E020E0CB0194
:100C50000197F1F7822F90E095958795282F4C9179
:100C6000452309F02068315091F7868D81FD20954C
:100C70008091DC0190E001968F7399273091DB0120
:100C8000381799F0A091DC01B0E0AE56BE4F2C931E
:100C90008093DC01828D938D0197F1F7A389B4894C
:100CA0008C919589892B8C93ACCF868D8160868FB2
:100CB000F1CF1092E6011092E50188EE93E0A0E0FA
:100CC000B0E08093E7019093E801A093E901B0932D
:100CD000EA0124E031E03093E4012093E30125ECC4
:100CE00030E03093F0012093EF0124EC30E03093BA
:100CF000F2012093F10120EC30E03093F4012093D5
:100D0000F30121EC30E03093F6012093F50122EC61
:100D100030E03093F8012093F70126EC30E0309377
:100D2000FA012093F9011092FC011092FD0110923A
:100D3000FE011092FF0110929B0210929A02809382
:100D40009C0290939D02A0939E02B0939F0282E228
:100D500091E090939902809398021092AF021092C2
:100D6000AE021092B1021092B0021092B302109231
:100D7000B2021092B5021092B4026091B6026E7F78
:100D80006D7F6093B6026695617081E068270E946E
:100D9000D40161E081E00E940202EFEAF0E0E49118
:100DA000E093A802EBE9F0E0E491F0E0EE0FFF1F22
:100DB000E057FF4F859194919093AA028093A902E6
:100DC00060E080E00E9402028091B60281FD04C0D2
:100DD00061E080E00E94D4011092A402EEEAF0E00B
:100DE000E491E093A502EAE9F0E0E491F0E0EE0F8F
:100DF000FF1FEA57FF4F859194919093A70280932C
:100E0000A602109283021092820286E191E09093F2
:100E10008102809380028DE0809384028FEF809323
:100E200085028CE0809386028BE0809387028AE0C3
:100E30008093880289E08093890288E080938A0207
:100E400010928B0210928C0210928D0210928E02E0
:100E500010928F0281E00C94E303789484B5826051
:100E600084BD84B5816084BD85B5826085BD85B54E
:100E7000816085BD80916E00816080936E001092CC
:100E80008100809181008260809381008091810047
:100E900081608093810080918000816080938000D8
:100EA0008091B10084608093B1008091B000816036
:100EB0008093B00080917A00846080937A00809162
:100EC0007A00826080937A0080917A0081608093BA
:100ED0007A0080917A00806880937A001092C10035
:100EE00082E00E94E30360E08EE00E94020262E082
:100EF00086E00E94020261E087E00E9402021092F6
:100F0000B3021092B2021092B1021092B00210928B
:100F1000AF021092AE028DE991E09093B5028093FA
:100F2000B4029091A402963108F047C02DEB30E056
:100F30003093AF022093AE022BE931E03093B1023F
:100F40002093B0022CE231E03093B3022093B2023E
:100F50002091680084E0983048F031E09E3008F439
:100F600030E081E001C0880F3A95EAF7822B809348
:100F700068002DE630E0983050F02BE630E09E30EF
:100F800030F02CE630E0963110F030E020E0309385
:100F9000AC022093AB02292F30E0983008F043C117
:100FA00081E001C0880F9A95EAF78093AD028091A5
:100FB000B4029091B5020197F1F78091B20290913D
:100FC000B302892B49F1E091DD01F091DE0122E0CD
:100FD000E839F20709F1309739F0A389B4899C9177
:100FE0008589809589238C938091B6028E7F80932A
:100FF000B6021092DC011092DB0188E992E0909336
:10100000DE018093DD01E091AB02F091AC028081C2
:101010009091AD02892B8083E091F301F091F4016E
:1010200082E08083E091EF01F091F0011082E09185
:10103000F101F091F2018FEC80831092FB01E091BD
:10104000F701F091F80186E08083E091F501F091DD
:10105000F601808180618083E091F501F091F601D5
:10106000808188608083E091F501F091F6018081B4
:1010700080688083E091F501F091F60180818F7D99
:10108000808368EE73E080E090E00E94630210923B
:10109000E0011092DF011092E2011092E10108E7F5
:1010A00010E094EBE92E90E0F92E20EAC22E20E029
:1010B000D22E30E0A32E30E0B32E88248394912CDE
:1010C00060E080E00E94890463E371E080E892E0E0
:1010D0000E949E0460E08AE00E9489040E948D00C4
:1010E000BC0180E892E00E94220561E080E00E945D
:1010F00089046CE371E080E892E00E949E0461E064
:1011000089E00E9489040E948D00853F91400CF483
:1011100097C08091E1019091E201892B09F090C084
:1011200061E087E00E94D401C091DF01D091E0012D
:101130002196D093E001C093DF0161E089E00E9435
:101140008904BE0180E892E00E9422059092E201AB
:101150008092E101F8018491F701C491F601D491E4
:10116000D11184C085E491E00E942C0568EC70E008
:1011700080E090E00E946302C091DF01D091E00125
:1011800084E591E00E942C0563E671E088E992E035
:101190000E949E0464E670E080E090E00E9463029A
:1011A0006EE671E088E992E00E949E0464EF71E0CF
:1011B00080E090E00E946302BE0188E992E00E9414
:1011C0002205AE01DD0F660B770B77FF79C083EE4A
:1011D00091E00E94F90460E371E083EE91E00E94E7
:1011E0009E0464EF71E080E090E00E9463026AE197
:1011F00088E992E00E94AE0264EF71E080E090E046
:101200000E94630260E371E088E992E00E949E041C
:1012100087E891E00E942C0564EF71E080E090E0A7
:101220000E94630232C09E3040F42850310981E0B0
:1012300001C0880F2A95EAF7B8CE2E503109F7CFB2
:101240000E948D00843F91400CF084CF8091E10199
:101250009091E201019709F07DCF60E087E00E9464
:10126000D4011092E2011092E10174CF81110E9429
:10127000AB01ED2FF0E0EE0FFF1FEA57FF4FA591F6
:10128000B4918C91C82309F46DCF88E992E00E9453
:101290000A03892B49F088E992E00E942203682F13
:1012A00083EE91E00E943E01A114B10409F408CF3D
:1012B0000E940801882309F403CF0E94000000CF98
:1012C0002AE083EE91E00E94AD0485CF82E291E0B6
:1012D00090939902809398028091DD019091DE01B4
:1012E0008859924071F4E091AB02F091AC02908188
:1012F0008091AD028095892380831092DE01109247
:10130000DD01089597FB072E16F4009407D077FDB2
:1013100009D00E94B80907FC05D03EF4909581954C
:101320009F4F0895709561957F4F0895A1E21A2E01
:10133000AA1BBB1BFD010DC0AA1FBB1FEE1FFF1F79
:10134000A217B307E407F50720F0A21BB30BE40BC9
:10135000F50B661F771F881F991F1A9469F7609510
:101360007095809590959B01AC01BD01CF010895CA
:10137000AA1BBB1B51E107C0AA1FBB1FA617B707BB
:1013800010F0A61BB70B881F991F5A95A9F78095D7
:101390009095BC01CD010895EE0FFF1F0590F491CB
:1013A000E02D099410E0C2E6D0E004C0FE010E94E6
:1013B000CC092196C336D107C9F7F894FFCF0000B6
:1013C00000003E019E00CB008B01FC00DA00EE0025
:1013D0000000000098049E00440343030000000046
:1013E000AE029E004403AD020A03220395020D0AD9
:1013F0000056616C7565203A2000436F756E74204D
:101400003A2000427574746F6E2070726573736554
:10141000640053656E64696E6720534D532E2E2E03
:101420000041542B434D47463D310D0041542B4361
:101430004D47533D222B3931393038303635393725
:101440003435220D00546578742053656E742E0077
:107E0000112484B714BE81FFF0D085E080938100F7
:107E100082E08093C00088E18093C10086E0809377
:107E2000C20080E18093C4008EE0C9D0259A86E02C
:107E300020E33CEF91E0309385002093840096BBD3
:107E4000B09BFECF1D9AA8958150A9F7CC24DD24C4
:107E500088248394B5E0AB2EA1E19A2EF3E0BF2EE7
:107E6000A2D0813461F49FD0082FAFD0023811F036
:107E7000013811F484E001C083E08DD089C08234E0
:107E800011F484E103C0853419F485E0A6D080C0E4
:107E9000853579F488D0E82EFF2485D0082F10E0AE
:107EA000102F00270E291F29000F111F8ED06801E7
:107EB0006FC0863521F484E090D080E0DECF843638
:107EC00009F040C070D06FD0082F6DD080E0C81688
:107ED00080E7D80618F4F601B7BEE895C0E0D1E017
:107EE00062D089930C17E1F7F0E0CF16F0E7DF06D8
:107EF00018F0F601B7BEE89568D007B600FCFDCFD4
:107F0000A601A0E0B1E02C9130E011968C91119780
:107F100090E0982F8827822B932B1296FA010C0160
:107F200087BEE89511244E5F5F4FF1E0A038BF0790
:107F300051F7F601A7BEE89507B600FCFDCF97BE46
:107F4000E89526C08437B1F42ED02DD0F82E2BD052
:107F50003CD0F601EF2C8F010F5F1F4F84911BD097
:107F6000EA94F801C1F70894C11CD11CFA94CF0C13
:107F7000D11C0EC0853739F428D08EE10CD085E9AC
:107F80000AD08FE07ACF813511F488E018D01DD067
:107F900080E101D065CF982F8091C00085FFFCCF94
:107FA0009093C60008958091C00087FFFCCF809118
:107FB000C00084FD01C0A8958091C6000895E0E648
:107FC000F0E098E1908380830895EDDF803219F02E
:107FD00088E0F5DFFFCF84E1DECF1F93182FE3DFCA
:107FE0001150E9F7F2DF1F91089580E0E8DFEE27F6
:047FF000FF270994CA
:027FFE00040479
:00000001FF
