:020000040000FA
:100000000C9462000C948A000C948A000C948A0070
:100010000C948A000C948A000C948A000C948A0038
:100020000C948A000C948A000C948A000C948A0028
:100030000C948A000C948A000C948A000C948A0018
:100040000C9497040C948A000C9465040C943F045F
:100050000C948A000C948A000C948A000C948A00F8
:100060000C948A000C948A000000000024002700F1
:100070002A0000000000250028002B0000000000DE
:1000800023002600290004040404040404040202DA
:100090000202020203030303030301020408102007
:1000A0004080010204081020010204081020000012
:1000B0000008000201000003040700000000000027
:1000C0000000E10411241FBECFEFD8E0DEBFCDBF9A
:1000D00011E0A0E0B1E0E6E9FCE002C005900D927D
:1000E000AA32B107D9F721E0AAE2B1E001C01D921E
:1000F000A83EB207E1F710E0C2E6D0E004C02197C5
:10010000FE010E944306C136D107C9F70E942B05A4
:100110000C9449060C94000080E480937C0080914C
:100120007A00806480937A0080917A0086FDFCCF0B
:1001300080917800909179000895FC01538D448D51
:10014000252F30E0842F90E0821B930B541710F082
:10015000CF96089501970895FC01918D828D98178F
:1001600061F0A28DAE0FBF2FB11D5D968C91928D67
:100170009F5F9F73928F90E008958FEF9FEF089598
:10018000FC01918D828D981731F0828DE80FF11D61
:10019000858D90E008958FEF9FEF0895FC01918D7C
:1001A000228D892F90E0805C9F4F821B91098F7375
:1001B00099270895FC01A48DA80FB92FB11DA35A4A
:1001C000BF4F2C91848D90E001968F739927848F77
:1001D000A689B7892C93A089B1898C91837080649A
:1001E0008C93938D848D981306C00288F389E02D3B
:1001F00080818F7D80830895EF92FF920F931F93EC
:10020000CF93DF93EC0181E0888F9B8D8C8D9813C9
:100210001AC0E889F989808185FF15C09FB7F894D5
:10022000EE89FF896083E889F98980818370806421
:1002300080839FBF81E090E0DF91CF911F910F916C
:10024000FF90EF900895F62E0B8D10E00F5F1F4F7B
:100250000F731127E02E8C8D8E110CC00FB607FC8A
:10026000FACFE889F989808185FFF5CFCE010E9418
:10027000DA00F1CFEB8DEC0FFD2FF11DE35AFF4FAC
:10028000F0829FB7F8940B8FEA89FB8980818062A6
:10029000CFCFCF93DF93EC01888D8823B9F0AA8963
:1002A000BB89E889F9898C9185FD03C0808186FD31
:1002B0000DC00FB607FCF7CF8C9185FFF2CF808180
:1002C00085FFEDCFCE010E94DA00E9CFDF91CF911B
:1002D000089583E391E00E94CE0021E0892B09F488
:1002E00020E0822F089580E090E0892B29F00E9481
:1002F000690181110C9400000895AF92BF92CF92D2
:10030000DF92EF92FF920F931F93CF93DF936C01D5
:100310007B018B01040F151FEB015E01AE18BF08B6
:10032000C017D10759F06991D601ED91FC91019068
:10033000F081E02DC6010995892B79F7C501DF9180
:10034000CF911F910F91FF90EF90DF90CF90BF90D2
:10035000AF900895833081F028F4813099F0823095
:10036000A9F008958730A9F08830C9F08430B1F43D
:10037000809180008F7D03C0809180008F77809373
:100380008000089584B58F7784BD089584B58F7DEE
:10039000FBCF8091B0008F778093B000089580915B
:1003A000B0008F7DF9CF1F93CF93DF93282F30E0DC
:1003B000F901E255FF4F8491F901E656FF4FD491C0
:1003C000F901EA57FF4FC491CC23A9F0162F8111F0
:1003D0000E94AA01EC2FF0E0EE0FFF1FEE58FF4F36
:1003E000A591B4918FB7F894EC91111108C0D095F4
:1003F000DE23DC938FBFDF91CF911F910895DE2B19
:10040000F8CFCF93DF9390E0FC01E656FF4F2491A5
:100410008A579F4FFC0184918823C9F090E0880F90
:10042000991FFC01E859FF4FA591B491FC01EE58CA
:10043000FF4FC591D49161110DC09FB7F8948C9175
:10044000209582238C938881282328839FBFDF9166
:10045000CF910895623051F49FB7F8943C91822F68
:10046000809583238C93E8812E2BEFCF8FB7F89460
:10047000EC912E2B2C938FBFEACF3FB7F89480914D
:100480002F0190913001A0913101B091320126B538
:10049000A89B05C02F3F19F00196A11DB11D3FBFBC
:1004A000BA2FA92F982F8827BC01CD01620F711D8B
:1004B000811D911D42E0660F771F881F991F4A9585
:1004C000D1F708958F929F92AF92BF92CF92DF9211
:1004D000EF92FF920E943D024B015C0188EEC82E14
:1004E00083E0D82EE12CF12C0E943D026819790995
:1004F0008A099B09683E734081059105A8F321E0B4
:10050000C21AD108E108F10888EE880E83E0981E2F
:10051000A11CB11CC114D104E104F10429F7FF901E
:10052000EF90DF90CF90BF90AF909F908F90089505
:10053000089590E080E00895CF93DF93EC0160E0B0
:100540008E810E94D30161E08E810E94D30160E020
:100550008E810E94D3018BE891E00197F1F7DF9142
:10056000CF910895CF92DF92EF92FF920F931F9356
:10057000CF93DF936C017C0187E0E80EF11CD0E0A3
:10058000C0E0062F10E0B8010C2E02C075956795EB
:100590000A94E2F76170F70181917F010E94D30113
:1005A0002196C430D10579F7C601DF91CF911F9113
:1005B0000F91FF90EF90DF90CF900C949C02CF9220
:1005C000DF92EF92FF920F931F93CF93DF93EC0193
:1005D000F62E642F8C810E94D3018D818F3F19F0FC
:1005E00060E00E94D3010F2D10E08F8584FF25C0AD
:1005F0006E0187E0C80ED11CF12CE12CB8010E2C45
:1006000002C0759567950A94E2F76170F6018191D1
:100610006F010E94D301FFEFEF1AFF0A88E0E8168E
:10062000F10461F7CE01DF91CF911F910F91FF90FF
:10063000EF90DF90CF900C949C02B80184E0759508
:1006400067958A95E1F7CE010E94B2026F2DCE0127
:10065000DF91CF911F910F91FF90EF90DF90CF909E
:100660000C94B20240E0682F80ED91E00C94DF0220
:10067000CF93DF93823029F49091DF0198609093BB
:10068000DF018093E3011092E40180E48093E501AF
:1006900080E18093E60180E58093E70161E080914D
:1006A000D4010E9401028091D5018F3F19F061E0D1
:1006B0000E94010261E08091D6010E940102C0ED1A
:1006C000D1E09E01205D31408091DF0184FD0BC0AF
:1006D00084E090E021962817390744F461E08E8188
:1006E0000E940102EECF88E090E0F4CF8BE39DE022
:1006F0000197F1F760E08091D4010E94D30160E09E
:100700008091D6010E94D3018091D5018F3F19F0CD
:1007100060E00E94D3018091DF0184FD39C063E075
:1007200080ED91E00E94B202CBE4D6E4CE010197C5
:10073000F1F763E080ED91E00E94B2022197F1F7BA
:1007400063E080ED91E00E94B20283E592E00197C0
:10075000F1F762E080ED91E00E94B2028091DF014A
:1007600080620E94320384E08093E0018CE00E946A
:10077000320381E00E9432038BE39FE10197F1F79E
:1007800082E08093E10186E0DF91CF910C94320307
:1007900080620E9432038BE496E40197F1F7809126
:1007A000DF0180620E94320383E592E00197F1F756
:1007B0008091DF0180620E943203D0CF41E00E942D
:1007C000DF0281E090E00895FB0101900020E9F74D
:1007D0003197AF01461B570BDC01ED91FC91028074
:1007E000F381E02D09948F929F92AF92BF92EF9286
:1007F000FF920F931F93CF93DF93CDB7DEB7A197EF
:100800000FB6F894DEBF0FBECDBF7C01FA01CB015D
:1008100019A2223008F42AE08E010F5D1F4F822EAC
:10082000912CB12CA12CBF01A50194010E9421069D
:10083000F901CA016A300CF5605DD8016E938D0133
:10084000232B242B252B79F790E080E0109721F0C3
:10085000BD01C7010E94E403A1960FB6F894DEBF64
:100860000FBECDBFDF91CF911F910F91FF90EF9001
:10087000BF90AF909F908F900895695CDECF1F92DC
:100880000F920FB60F9211242F933F934F935F93C4
:100890006F937F938F939F93AF93BF93EF93FF9348
:1008A00083E391E00E94DA00FF91EF91BF91AF9155
:1008B0009F918F917F916F915F914F913F912F9178
:1008C0000F900FBE0F901F9018951F920F920FB6AA
:1008D0000F9211242F938F939F93EF93FF93E091A7
:1008E0004301F09144018081E0914901F0914A0176
:1008F00082FD1BC0908180914C018F5F8F7320918E
:100900004D01821741F0E0914C01F0E0ED5CFE4FAB
:10091000958F80934C01FF91EF919F918F912F9133
:100920000F900FBE0F901F9018958081F4CF1F92EB
:100930000F920FB60F9211242F933F938F939F9393
:10094000AF93BF9380912B0190912C01A0912D0129
:10095000B0912E0130912A0123E0230F2D3758F555
:100960000196A11DB11D20932A0180932B01909324
:100970002C01A0932D01B0932E0180912F01909115
:100980003001A0913101B09132010196A11DB11D3C
:1009900080932F0190933001A0933101B0933201E5
:1009A000BF91AF919F918F913F912F910F900FBE6B
:1009B0000F901F90189526E8230F0296A11DB11DD8
:1009C000D2CFE3E3F1E01382128288EE93E0A0E05D
:1009D000B0E084839583A683B78384E091E091831C
:1009E000808385EC90E09587848784EC90E09787FE
:1009F000868780EC90E0918B808B81EC90E0938BEC
:100A0000828B82EC90E0958B848B86EC90E0978BC8
:100A1000868B118E128E138E148EE0EDF1E0138210
:100A2000128286E191E0918380838DE084838FEF51
:100A300085838CE086838BE087838AE0808789E0EA
:100A4000818788E082871386148615861686178626
:100A500081E00C943803789484B5826084BD84B5B9
:100A6000816084BD85B5826085BD85B5816085BDA9
:100A700080916E00816080936E0010928100809161
:100A800081008260809381008091810081608093E9
:100A90008100809180008160809380008091B1000E
:100AA00084608093B1008091B00081608093B00039
:100AB00080917A00846080937A0080917A008260CD
:100AC00080937A0080917A00816080937A0080918F
:100AD0007A00806880937A001092C10082E00E94C0
:100AE000380360E08EE00E94010262E084E00E9430
:100AF000010261E087E00E940102C2EBD0E00EE952
:100B000010E09AE8E92E90E0F92E20E0C22E20E0D5
:100B1000D22EE1E08091E3018111E0E0E195F0E087
:100B2000E053FE4F848980680E9432036EE171E0D9
:100B300080ED91E00E94E403E1E08091E301811106
:100B4000E0E0E195F0E0E053FE4F8489865F806845
:100B50000E9432030E948C004C01990FAA08BB0826
:100B60002AE0B501A401B7FE0EC041E06DE280EDC0
:100B700091E00E94DF0244275527BA01481959091C
:100B80006A097B092AE080ED91E00E94F3030E944C
:100B90008C004C01990FAA08BB082AE0B501A401FA
:100BA000B7FE0DC06DE283E391E00E94FC00442794
:100BB0005527BA01481959096A097B092AE083E3D4
:100BC00091E00E94F30367E271E083E391E00E9409
:100BD000E403FE018491F801A490F701B490B110F0
:100BE00018C061E087E00E94D3010E94620260E0C9
:100BF00087E00E94D3010E946202C114D10409F46B
:100C000088CF0E946901882309F483CF0E940000E5
:100C100080CF81110E94AA01EB2DF0E0EE0FFF1FA3
:100C2000E458FF4FA591B4918C91A822D1F20E9473
:100C30008C00853F9140ACF660E087E00E94D301D4
:100C4000DCCFA1E21A2EAA1BBB1BFD010DC0AA1FFF
:100C5000BB1FEE1FFF1FA217B307E407F50720F025
:100C6000A21BB30BE40BF50B661F771F881F991FA0
:100C70001A9469F760957095809590959B01AC01E9
:100C8000BD01CF010895EE0FFF1F0590F491E02DF7
:100C90000994F894FFCF00000000FC007D019D0046
:100CA0004901CE00AC00C00000000000DE037D0161
:100CB0009902980256616C7565203A20000D0A0071
:107E0000112484B714BE81FFF0D085E080938100F7
:107E100082E08093C00088E18093C10086E0809377
:107E2000C20080E18093C4008EE0C9D0259A86E02C
:107E300020E33CEF91E0309385002093840096BBD3
:107E4000B09BFECF1D9AA8958150A9F7CC24DD24C4
:107E500088248394B5E0AB2EA1E19A2EF3E0BF2EE7
:107E6000A2D0813461F49FD0082FAFD0023811F036
:107E7000013811F484E001C083E08DD089C08234E0
:107E800011F484E103C0853419F485E0A6D080C0E4
:107E9000853579F488D0E82EFF2485D0082F10E0AE
:107EA000102F00270E291F29000F111F8ED06801E7
:107EB0006FC0863521F484E090D080E0DECF843638
:107EC00009F040C070D06FD0082F6DD080E0C81688
:107ED00080E7D80618F4F601B7BEE895C0E0D1E017
:107EE00062D089930C17E1F7F0E0CF16F0E7DF06D8
:107EF00018F0F601B7BEE89568D007B600FCFDCFD4
:107F0000A601A0E0B1E02C9130E011968C91119780
:107F100090E0982F8827822B932B1296FA010C0160
:107F200087BEE89511244E5F5F4FF1E0A038BF0790
:107F300051F7F601A7BEE89507B600FCFDCF97BE46
:107F4000E89526C08437B1F42ED02DD0F82E2BD052
:107F50003CD0F601EF2C8F010F5F1F4F84911BD097
:107F6000EA94F801C1F70894C11CD11CFA94CF0C13
:107F7000D11C0EC0853739F428D08EE10CD085E9AC
:107F80000AD08FE07ACF813511F488E018D01DD067
:107F900080E101D065CF982F8091C00085FFFCCF94
:107FA0009093C60008958091C00087FFFCCF809118
:107FB000C00084FD01C0A8958091C6000895E0E648
:107FC000F0E098E1908380830895EDDF803219F02E
:107FD00088E0F5DFFFCF84E1DECF1F93182FE3DFCA
:107FE0001150E9F7F2DF1F91089580E0E8DFEE27F6
:047FF000FF270994CA
:027FFE00040479
:00000001FF
