:100000000C945D000C9485000C9485000C94850084
:100010000C9485000C9485000C9485000C9485004C
:100020000C9485000C9485000C9485000C9485003C
:100030000C9485000C9485000C9485000C9485002C
:100040000C946E040C9485000C943C040C941604DF
:100050000C9485000C9485000C9485000C9485000C
:100060000C9485000C9485000000000024002700FB
:100070002A0000000000250028002B0004040404CE
:100080000404040402020202020203030303030342
:10009000010204081020408001020408102001021F
:1000A00004081020000000080002010000030407FB
:1000B0000000000000000000B80411241FBECFEFB4
:1000C000D8E0DEBFCDBF11E0A0E0B1E0E6E1FCE0AA
:1000D00002C005900D92A433B107D9F721E0A4E343
:1000E000B1E001C01D92A63FB207E1F710E0CDE5F7
:1000F000D0E004C02197FE010E940306CC35D10751
:10010000C9F70E9402050C9409060C94000080E4D3
:1001100080937C0080917A00806480937A00809143
:100120007A0086FDFCCF8091780090917900089547
:10013000FC01538D448D252F30E0842F90E0821BED
:10014000930B541710F0CF96089501970895FC0172
:10015000918D828D981761F0A28DAE0FBF2FB11DCA
:100160005D968C91928D9F5F9F73928F90E0089522
:100170008FEF9FEF0895FC01918D828D981731F0DC
:10018000828DE80FF11D858D90E008958FEF9FEF30
:100190000895FC01918D228D892F90E0805C9F4F06
:1001A000821B91098F7399270895FC01A48DA80FD4
:1001B000B92FB11DA35ABF4F2C91848D90E00196A9
:1001C0008F739927848FA689B7892C93A089B189C9
:1001D0008C91837080648C93938D848D981306C06A
:1001E0000288F389E02D80818F7D80830895EF92CE
:1001F000FF920F931F93CF93DF93EC0181E0888FE1
:100200009B8D8C8D98131AC0E889F989808185FFB0
:1002100015C09FB7F894EE89FF896083E889F98952
:1002200080818370806480839FBF81E090E0DF9154
:10023000CF911F910F91FF90EF900895F62E0B8DA7
:1002400010E00F5F1F4F0F731127E02E8C8D8E1162
:100250000CC00FB607FCFACFE889F989808185FFC9
:10026000F5CFCE010E94D500F1CFEB8DEC0FFD2F25
:10027000F11DE35AFF4FF0829FB7F8940B8FEA8984
:10028000FB8980818062CFCFCF93DF93EC01888D93
:100290008823B9F0AA89BB89E889F9898C9185FD01
:1002A00003C0808186FD0DC00FB607FCF7CF8C918F
:1002B00085FFF2CF808185FFEDCFCE010E94D50072
:1002C000E9CFDF91CF91089581E491E00E94C900C8
:1002D00021E0892B09F420E0822F089580E090E04E
:1002E000892B29F00E94640181110C94000008956B
:1002F000AF92BF92CF92DF92EF92FF920F931F9334
:10030000CF93DF936C017B018B01040F151FEB0171
:100310005E01AE18BF08C017D10759F06991D60128
:10032000ED91FC910190F081E02DC6010995892B9A
:1003300079F7C501DF91CF911F910F91FF90EF9059
:10034000DF90CF90BF90AF90089590E0FC01EC5506
:10035000FF4F2491FC01E057FF4F3491FC01E4581A
:10036000FF4FE491EE23C9F0222339F0233001F14D
:10037000A8F4213019F1223029F1F0E0EE0FFF1F2F
:10038000EE58FF4FA591B4918FB7F894EC9161119D
:1003900026C030953E233C938FBF08952730A9F0A7
:1003A0002830C9F0243049F7809180008F7D03C048
:1003B000809180008F7780938000DFCF84B58F7726
:1003C00084BDDBCF84B58F7DFBCF8091B0008F776C
:1003D0008093B000D2CF8091B0008F7DF9CF3E2BBB
:1003E000DACFCF93DF9390E0FC01E057FF4F2491E9
:1003F00084589F4FFC0184918823C9F090E0880FB6
:10040000991FFC01E859FF4FA591B491FC01EE58EA
:10041000FF4FC591D49161110DC09FB7F8948C9195
:10042000209582238C938881282328839FBFDF9186
:10043000CF910895623051F49FB7F8943C91822F88
:10044000809583238C93E8812E2BEFCF8FB7F89480
:10045000EC912E2B2C938FBFEACF089590E080E093
:100460000895CF93DF93EC0160E08E810E94A50197
:1004700061E08E810E94A50160E08E810E94A5014D
:100480008BE891E00197F1F7DF91CF910895CF923A
:10049000DF92EF92FF920F931F93CF93DF936C0144
:1004A0007C0187E0E80EF11CD0E0C0E0062F10E0F0
:1004B000B8010C2E02C0759567950A94E2F7617039
:1004C000F70181917F010E94A5012196C430D105D9
:1004D00079F7C601DF91CF911F910F91FF90EF90B7
:1004E000DF90CF900C943102CF92DF92EF92FF9287
:1004F0000F931F93CF93DF93EC01F62E642F8C8123
:100500000E94A5018D818F3F19F060E00E94A50136
:100510000F2D10E08F8584FF25C06E0187E0C80E87
:10052000D11CF12CE12CB8010E2C02C075956795F9
:100530000A94E2F76170F60181916F010E94A501B2
:10054000FFEFEF1AFF0A88E0E816F10461F7CE0129
:10055000DF91CF911F910F91FF90EF90DF90CF909F
:100560000C943102B80184E0759567958A95E1F79E
:10057000CE010E9447026F2DCE01DF91CF911F91D6
:100580000F91FF90EF90DF90CF900C94470240E0E6
:10059000682F8EED91E00C947402CF93DF9382303C
:1005A00029F49091ED0198609093ED018093F10111
:1005B0001092F20180E48093F30180E18093F401D2
:1005C00080E58093F50161E08091E2010E94F101F4
:1005D0008091E3018F3F19F061E00E94F10161E039
:1005E0008091E4010E94F101CEEDD1E09E012E5DEB
:1005F00031408091ED0184FD0BC084E090E02196B4
:100600002817390744F461E08E810E94F101EECF92
:1006100088E090E0F4CF8BE39DE00197F1F760E094
:100620008091E2010E94A50160E08091E4010E94B6
:10063000A5018091E3018F3F19F060E00E94A501C0
:100640008091ED0184FD39C063E08EED91E00E9460
:100650004702CBE4D6E4CE010197F1F763E08EEDDB
:1006600091E00E9447022197F1F763E08EED91E05F
:100670000E94470283E592E00197F1F762E08EED78
:1006800091E00E9447028091ED0180620E94C702C2
:1006900084E08093EE018CE00E94C70281E00E941A
:1006A000C7028BE39FE10197F1F782E08093EF01AE
:1006B00086E0DF91CF910C94C70280620E94C7024E
:1006C0008BE496E40197F1F78091ED0180620E943E
:1006D000C70283E592E00197F1F78091ED01806216
:1006E0000E94C702D0CF9091F101691710F06FEF0F
:1006F000690FE62FF0E0E252FE4F9489890F80687F
:100700000C94C70241E00E94740281E090E00895D9
:10071000FB0101900020E9F73197AF01461B570B11
:10072000DC01ED91FC910280F381E02D09948F9220
:100730009F92AF92BF92EF92FF920F931F93CF932E
:10074000DF93CDB7DEB7A1970FB6F894DEBF0FBE2B
:10075000CDBF7C01FA01CB0119A2223008F42AE0B6
:100760008E010F5D1F4F822E912CB12CA12CBF0149
:10077000A50194010E94E105F901CA016A300CF556
:10078000605DD8016E938D01232B242B252B79F7E7
:1007900090E080E0109721F0BD01C7010E9488031E
:1007A000A1960FB6F894DEBF0FBECDBFDF91CF91FB
:1007B0001F910F91FF90EF90BF90AF909F908F90FF
:1007C0000895695CDECFCF92DF92EF92FF920F9394
:1007D0001F93CF93DF93EC016A017B01E881F981DC
:1007E0000190F081E02D6DE209958C014427552799
:1007F000BA014C195D096E097F092AE0CE010E94F9
:100800009703800F911FDF91CF911F910F91FF9060
:10081000EF90DF90CF900895AB01770F660B770BC9
:1008200077FD0C94E3032AE00C9497031F920F9238
:100830000FB60F9211242F933F934F935F936F93B3
:100840007F938F939F93AF93BF93EF93FF9381E435
:1008500091E00E94D500FF91EF91BF91AF919F91E0
:100860008F917F916F915F914F913F912F910F9059
:100870000FBE0F901F9018951F920F920FB60F92F8
:1008800011242F938F939F93EF93FF93E091510146
:10089000F09152018081E0915701F091580182FD61
:1008A0001BC0908180915A018F5F8F7320915B01F3
:1008B000821741F0E0915A01F0E0EF5BFE4F958F17
:1008C00080935A01FF91EF919F918F912F910F90FB
:1008D0000FBE0F901F9018958081F4CF1F920F923A
:1008E0000FB60F9211242F933F938F939F93AF9343
:1008F000BF938091390190913A01A0913B01B09151
:100900003C013091380123E0230F2D3758F5019633
:10091000A11DB11D209338018093390190933A01B4
:10092000A0933B01B0933C0180913401909135013B
:10093000A0913601B09137010196A11DB11D8093A0
:10094000340190933501A0933601B0933701BF91E4
:10095000AF919F918F913F912F910F900FBE0F906C
:100960001F90189526E8230F0296A11DB11DD2CF26
:10097000E1E4F1E01382128288EE93E0A0E0B0E0BF
:1009800084839583A683B78384E091E091838083F9
:1009900085EC90E09587848784EC90E09787868744
:1009A00080EC90E0918B808B81EC90E0938B828B3C
:1009B00082EC90E0958B848B86EC90E0978B868B15
:1009C000118E128E138E148EEEEDF1E013821282D0
:1009D00086E191E0918380838DE084838FEF85832E
:1009E0008CE086838BE087838AE0808789E081873B
:1009F00088E082871386148615861686178681E01E
:100A00000C94CD02789484B5826084BD84B58160F5
:100A100084BD85B5826085BD85B5816085BD8091C9
:100A20006E00816080936E00109281008091810041
:100A30008260809381008091810081608093810039
:100A4000809180008160809380008091B1008460FB
:100A50008093B1008091B00081608093B00080915C
:100A60007A00846080937A0080917A00826080931B
:100A70007A0080917A00816080937A0080917A0078
:100A8000806880937A001092C10082E00E94CD02BB
:100A900060E08EE00E94F10162E084E00E94F101DA
:100AA00061E087E00E94F10110923E0110923D0149
:100AB0001092400110923F01C0E0D0E001E010E050
:100AC00060E080E00E9473036EE171E08EED91E0E2
:100AD0000E94880360E08AE00E9473030E948700FE
:100AE000BC018EED91E00E940C040E948700AC01D5
:100AF000990F660B770B77FF4AC081E491E00E9463
:100B0000E30367E271E081E491E00E94880361E021
:100B100080E00E9473036AE271E08EED91E00E9432
:100B2000880361E089E00E9473030E948700853F8B
:100B300091409CF180913F0190914001892B69F592
:100B400061E087E00E94A501E0903D01F0903E0148
:100B50008FEFE81AF80AF0923E01E0923D0161E061
:100B600089E00E947303B7018EED91E00E940C04AE
:100B70001093400100933F01209709F4A1CF0E94F8
:100B80006401882309F49CCF0E94000099CF2AE0D9
:100B900081E491E00E949703B4CF0E948700843FD4
:100BA000914054F780913F0190914001019721F7C6
:100BB00060E087E00E94A5011092400110923F0181
:100BC000DBCFA1E21A2EAA1BBB1BFD010DC0AA1F81
:100BD000BB1FEE1FFF1FA217B307E407F50720F0A6
:100BE000A21BB30BE40BF50B661F771F881F991F21
:100BF0001A9469F760957095809590959B01AC016A
:100C0000BD01CF010895EE0FFF1F0590F491E02D77
:060C10000994F894FFCFE7
:100C160000000000F700780198004401C900A70011
:100C2600BB0000000000820378012E022D025661EF
:100C36006C7565203A20000D0A00436F756E7420AE
:040C46003A20000050
:00000001FF
